:020000040040BA
:100000000848012075AF400071AF400071AF40005B
:1000100071AF400071AF400071AF400000000000C0
:100020000000000000000000000000004D8D4000B6
:1000300071AF400000000000C98D4000198E4000E3
:1000400071AF400071AF400071AF400071AF400030
:1000500071AF400071AF400071AF400071AF400020
:1000600071AF400021AC400035AC400049AC4000CD
:100070005DAC400071AC40009138400071AF400071
:1000800071AF400071AF400071AF400071AF4000F0
:1000900071AF400071AF400071AF400071AF4000E0
:1000A00071AF400071AF400071AF400071AF4000D0
:1000B00071AF400071AF400071AF400071AF4000C0
:1000C00071AF400071AF400071AF400071AF4000B0
:1000D00071AF400071AF4000A539400071AF4000E2
:1000E00071AF400071AF400071AF400071AF400090
:1000F00071AF400071AF400010B5054C237833B9A3
:10010000044B13B10448AFF300800123237010BDEA
:10011000F00100200000000070E740000C4B43B1EC
:100120000C480D4910B5AFF300800C48036823B9A3
:1001300010BD0A48036833B97047094B002BF7D04C
:10014000BDE810401847064B002BF5D0184700BFFC
:100150000000000070E74000F401002070E740005C
:100160000000000008B5014B984708BDD1064000CB
:1001700030B583B004460D4600230193174B9842D7
:100180000AD0174B9C420ED0164B9C4212D0164BF5
:100190009C4219D003B030BD29462046134B9847E6
:1001A0000028F9D1EDE729462046104B9847002852
:1001B000F9D1E9E701A920460D4B98470028F9D16C
:1001C0009DF804302B70E2E701A92046084B9847C0
:1001D0000028F9D19DF804302B70DBE700060E40B3
:1001E0000006064000000A4000400A4033AF4000CD
:1001F00059AF400038B504460D46174B98420AD017
:10020000164B98420FD0164B984214D0154B98427B
:1002100019D0002038BD29462046134B98470028A6
:10022000F9D1012038BD294620460F4B98470028B8
:10023000F9D1012038BD294620460C4B98470028AB
:10024000F9D1012038BD29462046084B984700289F
:10025000F9D1012038BD00BF00060E40000606405F
:1002600000000A4000400A4023AF400045AF400074
:1002700030B583B0074C2046074B984700230093C6
:10028000064B032206492046064DA847012323605A
:1002900003B030BD0080084061A7400040420F001D
:1002A0000C020020B5A740002DE9F04786B0B82029
:1002B000DFF8D090C84782462F4C271DDFF8C88052
:1002C00046230493182303937823029377230193FF
:1002D0002A4E009644233A464146294DA847C4F881
:1002E00008A0B820C847824676230493742303935A
:1002F000752302937323019300960B233A464146DC
:10030000A847C4F80CA0B820C8478246012304932C
:100310006A23039350230293002301930096222320
:100320003A464146A847C4F810A0B820C8478246BC
:100330006F230493522303937D2302936823019335
:10034000009616233A464146A847C4F814A0B820A0
:10035000C84781466223049363230393582302937F
:1003600057230193009610233A464146A847C4F804
:10037000189006B0BDE8F0870C0200200024F400BD
:10038000114F4000B9B240000080084008B5034852
:1003900000F108011C30024B984708BD0C020020F8
:1003A000E5724000F8B5124E3046124B9847124F96
:1003B00007F108013046114B9847054607F11C012B
:1003C00030460F4B984730460E4B984700E00134BB
:1003D000042C0BDC45FA04F313F0010FF7D0064BA5
:1003E00003EB84039868084B9847F0E7F8BD00BF1B
:1003F00088720020C57F40000C02002099884000D0
:10040000098B4000318040008D55400070B54FF49D
:100410003F70104B9847064601210F4B98470F4CF1
:10042000C4F8046D0E4D05F1080130460D4B984798
:1004300005F11C01D4F8040D0B4B984704F6AC21D0
:10044000D4F8040D094B9847D4F8040D084B98478D
:1004500070BD00BFB9B240009D3A4000DC6700208B
:100460000C0200206D3B40008B3B4000913B400064
:10047000B13D4000012800D0704708B54FF6FF732A
:10048000994200D008BD064B9847064B58600021A2
:10049000054A82F8001D03F11C00044B9847F1E760
:1004A000319340000C020020DC67002039714000CD
:1004B00030B589B0144B0FCB08AC04E90F0007200E
:1004C000124DA847124C134B1C60134A134B1A6071
:1004D000134A144B1A60144B0193049B0293069B1E
:1004E00003930720A84701A92046104B9847104DB9
:1004F0002B68002198680F4CA0472B680021586892
:10050000A04709B030BD00BF4CDC40006DAD4000DD
:1005100000060E40FC170120F5014000F8170120ED
:1005200071014000F417012000D8B805EBAE40007F
:100530002000002011C44000704700004FF400422A
:10054000014B5A60704700BF50180E4008B50D4B64
:1005500098470D4B98470D4B98470D4B98470D4BBF
:1005600098470D4B98470D4B98470D4B98470D4BAF
:1005700098470D4B98470D4B98470D4B98470020D7
:1005800008BD00BF3D0540003DB0400059A64000F9
:1005900055A4400065014000B104400071024000D4
:1005A000A90240008D034000A50340000D04400057
:1005B0001599400008B54FF6FF710120014B98478F
:1005C00008BD00BF7504400010B5064B19688B7F4D
:1005D000003318BF01234A7B096803480078034CA5
:1005E000A04710BD1875002040750020ED14400094
:1005F00008B10420704710B50E4B9B7A033BDBB269
:10060000012B0DD900220C4B1A700A4C0B4B1C60AD
:100610000B4B9847A07A022814BF0020012010BD80
:10062000044B02229A72074A1A6001225A7300226E
:100630009A77E7E71C7500204075002018750020A8
:10064000C9054000801A060038B5049C520242EAEF
:10065000C36242EA017242EAC0722178114341F258
:100660003430054B9847054608B9284638BD034B3A
:1006700098472070F9E700BFCD154000F9154000FC
:1006800010B5094B1B681989090441F60930074B5D
:100690009847044608B9204610BD034B18680E3031
:1006A000034B9847F7E700BF18750020CD154000B1
:1006B0000516400008B5044B1B7803B108BD0020A7
:1006C000024B9847FAE700BF40750020A51540008F
:1006D00008B50422034B9A72FF22034B1A70034B96
:1006E000984708BD1C75002040750020B5144000D7
:1006F0002DE9F04395B0A74B98470446012805D053
:10070000A54B9847204615B0BDE8F08314AE0823EA
:1007100006F8453DA14B1B680127DF7200251D73BC
:100720001D819F4B984700962B4606222946384646
:100730009C4EB04729464FF480409B4B984730B9B8
:10074000964B1B6803249C72934B9847DAE74FF44F
:10075000D57145F20850944B9847002840F093809B
:100760004FF00009002144F205508F4B98470028B4
:1007700040F09780894B1B68DB7A13F0010F40F043
:10078000B580002145F20310874B98470028D7D049
:10079000824D2E68854B9847000C30812B68DB7AA0
:1007A00013F0010F34D0824B98470028C8D02B6833
:1007B0005A7CC2F3C30002F007027E4951F82210AE
:1007C0004FF47A7202FB01F27B4951F8201002FBD0
:1007D00001F21A609A7B920940F00B82997D587D54
:1007E0001A7D920242EA800242EAA112187ED97D65
:1007F000490041EAE011C2F30B02013201F00701A6
:1008000002318A40D97C01F00F018A40920A5A6075
:10081000624B1B681989090443F20710624B984721
:1008200000288DD05D4B1B68DA7A12F0010F40F082
:10083000ED815A4B1B68DB7A13F0040F00F09C82A9
:1008400009250027574EA5F1090303AA1344009375
:100850003B462A4639463846B04701350D2DF2D180
:100860009DF80D309DF80C9009EB03299DF80E3092
:1008700009EB03499DF80F3009EB03694E464FF031
:100880000008484F39E2494B9847B0F1FF3F00F06C
:100890004783C0F30B00B0F5D57F7FF451AFB94665
:1008A00060E7424B984710F0E04F3FF463AF41F2EE
:1008B000893544F205583C4E3C4F00F4FC1140464B
:1008C000B04700283FF43CAFB847002802DB013DA9
:1008D000F3D135E710F0006F04D1304B1B680422D0
:1008E000DA724EE72D4B1B680522DA72B9F1000F60
:1008F000324F14BFB9464FF4FC1940F635054FF09E
:100900000008294E294F414641F23710B04748B1FF
:10091000494644F22950B04720B1B847002820DBAF
:10092000013DF0D11D4B1B680222DA7200214FF409
:1009300080401D4B984700283FF402AF41F2690503
:10094000DFF87880184E194F414644F20150B04705
:1009500000283FF4F5AEB847002831DB013DF3D164
:10096000EEE610F0804F05D00C4B1A68D37A43F0B6
:100970000803D372094B1B68DB7A13F0010F3FF4B5
:1009800000AF002145F60230074B984700287FF45E
:10099000F8AED5E6F1054000B50640001875002018
:1009A000A915400049064000CD154000F91540004A
:1009B000810640009CDC4000B8DC400000801F4005
:1009C00000F0C040B0F1804F27D0002145F6023042
:1009D000A74B984700283FF4B3AEA64B1B680122F3
:1009E0001A814FF4803141F20310A14B984700283F
:1009F0003FF4A6AEA04B984700283FF4A1AE9D4B14
:100A00001A68937BC3F38303013B032B0CD8DFE805
:100A100013F0CC00CF00D200D500964B1A68D37AE1
:100A200043F00803D372D0E712231373537CC3F34C
:100A3000C30003F00703914951F823104FF47A7370
:100A400003FB01F38E4951F8201003FB01F31360FF
:100A5000917D507D137D9B0243EA800343EAA113FD
:100A6000C3F30B0340F6FF718B420FD0107ED17D94
:100A7000490041EAE011013301F0070102318B40E6
:100A8000D17C01F00F018B409B0A5360118909044E
:100A900043F20710764B984700283FF451AE754B50
:100AA0001B681B7B3F2B40F29680002100910123A5
:100AB0004FF400727348744DA84700283FF440AECD
:100AC0000025724E03A8B04700283FF439AE013527
:100AD000ADB2322DF6D1039E06F00206654B1B68BF
:100AE0009A7D597D1B7D9B0243EA810343EAA21351
:100AF000C3F30B0340F6FF7293420ED1634F04A879
:100B0000B84700283FF41CAE0135ADB2352DF6D9FB
:100B1000584B1A68049B5B0853605C4F7F2D50D97B
:100B20005B4B18785B4B984703281DD9584B1878B6
:100B3000584B9847054604284BD0574B574908282F
:100B400018BF194643F20610494B984700283FF456
:100B5000F7AD534B984710F0800F7FF4F1AD454B44
:100B60001B685D734F4B98474F4B9847B0B1AEB180
:100B70004E4943F206103E4B984700283FF4E0AD43
:100B8000474B984710F0800F7FF4DAAD394B1B6864
:100B900001229A77464A1A60424B98470A254FF439
:100BA000007841F21017324E1DE0142313733DE715
:100BB000222313733AE73023137337E74023137369
:100BC00034E704A8B84700283FF4BAAD0135ADB208
:100BD000A4E73849B6E7334B9847DFE7013D15F006
:100BE000FF053FF4ADAD41463846B0470028F5D08B
:100BF0000EE1D97D987D5A7D120442EA00220A4313
:100C0000C2F31502013252025A6001E61989090441
:100C100041F23710164B984700283FF491AD01235D
:100C20000093082200212448174DA84700283FF4CC
:100C300087AD012104A8214B984700283FF480ADDF
:100C40001F4B984700283FF47BAD9DF8103003F010
:100C50000F03012B36D033B1022B38D0054B1B6864
:100C600010221A73E5E5034B1B6810221A73E0E5A6
:100C7000CD15400018750020810640009CDC400026
:100C80005CDC40000811080035164000F9164000F1
:100C900040750020DD1440000000B7010002B701DC
:100CA000F9154000C9054000E71440000001B903F0
:100CB000007519030001B7013311080069174000DE
:100CC000CD174000984B1B681A221A73B1E59DF8A6
:100CD0001230DB09944B1B6814BF302220221A7398
:100CE000A7E59DF81130002B3FF42AAD02331E44D6
:100CF00009F580739E423FF623AD002504AB2B44DB
:100D000000934346721941464046B8470135032DCA
:100D1000F4D19DF81030FF2B3FF412AD222BE0D11F
:100D20009DF81230002BDCD104AD06F106094FF01E
:100D300000087E4F00954346324641464046B8473C
:100D4000013601354E45F5D19DF81530322B28BFBF
:100D50003223754A1268C3F3C30003F007037449D2
:100D600051F823104FF47A7303FB01F3714951F8E2
:100D7000201003FB01F313606F4B18786F4B9847FB
:100D8000032822D9684B1B68DB7A13F0040F46D185
:100D9000654B1B68DA7A12F0010F14D01989090427
:100DA00041F23710664B984700283FF4C9AC022146
:100DB00041F20610624B984700283FF4C1AC5A4BF1
:100DC0001B6804225A735F4B98475F4B984780B16A
:100DD000554B1B68DB7A13F0040F41D1524B1B6853
:100DE000DA7A12F0010F02D01B7B102B5DD8554B25
:100DF00098474D4B1B68DB7A13F0010F08D04FF476
:100E0000007141F210104E4B984700283FF498AC07
:100E1000454B1B6800229A724C4B984772E404AB16
:100E200000930023082219461846404DA847002881
:100E30003FF486AC9DF91030002BA9DA14AB0222E6
:100E400003F8402D00930123072200211846A847EC
:100E500000283FF475AC344B1B6804225A7397E7A3
:100E600004AB009300231322194618462F4DA847C0
:100E700000283FF465AC9DF8103013F0010FADD0A1
:100E800014AB022203F8402D00930123132200210A
:100E90001846A84700283FF453AC234B1B68012297
:100EA0009A771A6852001A6098E740252A4600216E
:100EB00004A8274B9847012300932A462549264832
:100EC000264DA84700283FF43BAC012104A8244B41
:100ED000984700283FF434AC224B984700283FF451
:100EE0002FAC214B984710F0800F7FF429AC9DF870
:100EF000203003F00F030F2B3FF479AF9DF82D3016
:100F00009DF82C2053EA02237FF41AAC174B984724
:100F1000054B1B6801229A771A6852001A6066E72F
:100F20004FF000091EE400BF18750020490640007C
:100F30009CDC4000B8DC400040750020DD1440001F
:100F4000CD154000C9054000E7144000B50640003B
:100F500087C2400001FFFF800611080035164000DF
:100F600069174000CD174000F9154000A915400051
:100F700008B5054B984708B1002008BD034B9847BA
:100F8000034B1B68D87A08BDF1054000B506400048
:100F90001875002008B5054B984708B1002008BD1A
:100FA000034B9847034B1B68586808BDF105400088
:100FB000B506400018750020002070472DE9F04765
:100FC00082B08A469146264B9847804618B14046E3
:100FD00002B0BDE8F087234C234E244D244F3368E4
:100FE0001989090441F20D10A84728B1B84710F437
:100FF000807F17D1013CF2D11E4B98474FF0050876
:10100000E5E71B4B98471C4B034033B91B4BA3F838
:1010100000901B4BA3F80090D9E7164B98474FF070
:101020000508D4E7174B1848B9F1010F98BF1846C7
:101030000D4B1B68DB7A13F0080F01D14FEA4A2AE7
:10104000012300934B464FF4007251460F4CA047CA
:101050000028D6D1074B98474FF00508B7E700BFE7
:10106000F1054000410D030018750020CD1540002A
:10107000F9154000B5064000000058E43C7500201A
:101080003E750020111108001211100035164000A5
:1010900010B50C46064B984720B90022054B1A8024
:1010A000052010BD034A13881C1B1480002010BDAE
:1010B000691740003C75002010B50446134B984753
:1010C00008B9052010BD84B10022114B1A80114BC4
:1010D0001B88012B0FD0002143F20C100E4B9847B8
:1010E00068B10E4B9847002010BD094B1B88002BA0
:1010F000EDD0002010BD094B9847002010BD002105
:1011000043F20C10044B9847EBE700BFCD174000AB
:101110003C7500203E750020CD154000B50640000E
:1011200070B582B00E461546164B98470446B8B9BE
:10113000154B1648012D98BF1846154B1B68DB7AD6
:1011400013F0080F08BF7602012300932B464FF4DB
:10115000007231460F4EB04728B90F4B984705240F
:10116000204602B070BD0D4B98470D4B034023B98C
:101170000C4B1D800C4B1D80F2E7074B9847052454
:10118000EEE700BFF105400018910800199110002A
:101190001875002035164000B5064000F9154000CE
:1011A000000058E43C7500203E75002010B50C4648
:1011B000064B984720B90022054B1A80052010BD28
:1011C000034A13881C1B1480002010BD3D184000EA
:1011D0003C75002010B50446124B984708B905200D
:1011E00010BD84B10022104B1A80104B1B88012BBC
:1011F0000FD0002143F20C100D4B984768B90D4BEE
:101200009847052010BD084B1B88002BEDD000200F
:1012100010BD084B9847002010BD064B9847002092
:1012200010BD00BFA51840003C7500203E75002091
:10123000CD154000B506400010B504460F4B984749
:10124000012818D018B1022810D0012010BD0C4B75
:101250001B5D0BB1022010BD20460A4B984700F0E1
:101260000300002814BF0020022010BD0022044B00
:101270001A55022010BD032010BD00BFF10640002A
:1012800044750020710F400008B50020014B9847BD
:1012900008BD00BF3912400038B504460D46044B66
:1012A00098474000013828602046024B984738BDD7
:1012B000950F40003912400008B501460020014B4F
:1012C000984708BD9912400008B50020014B984787
:1012D00008BD00BFB90F400010B5144601220A4BEB
:1012E000984720B102280CBF0220012010BD012127
:1012F0002046064B984708B1012010BD044B984783
:10130000003018BF012010BDBD0F400091104000FB
:10131000B910400008B50A4601460020014B984725
:1013200008BD00BFD912400010B5144601220A4B77
:10133000984720B102280CBF0220012010BD0121D6
:101340002046064B984708B1012010BD044B984732
:10135000003018BF012010BD21114000AD11400028
:10136000D511400008B50A4601460020014B9847B8
:1013700008BD00BF2913400008B10120704708B51F
:10138000014B984708BD00BF8912400008B10120F9
:10139000704708B50846014B984708BDB912400090
:1013A000B0FA80F04009704708B10120704708B5D5
:1013B000014B984708BD00BFC912400008B1012089
:1013C000704708B508461146014B984708BD00BF55
:1013D0001513400008B10120704708B508461146B2
:1013E000014B984708BD00BF6513400070B4084B1F
:1013F0005D689C68D868D9695A6D80261E605D60FA
:101400009C60D860D9615A6505221A6070BC70472B
:101410000000084008B501F03F03184311F4807F35
:1014200004D011F4006F0DD040F4845011F4804FBB
:1014300018BF40F400601D4B1A615861184601F452
:1014400080520DE011F4005F14BF40F4865040F468
:101450008250EBE713F41B0F0CD113F0010F0DD1E9
:10146000036C002AF6D013F41F0FF6D0104B9847E8
:10147000002008BD0E4B9847002008BD11F4005F06
:1014800003D1012008BD012008BD084B1B6C4FF0A3
:10149000FF32064903F03003202BF4D00B6C013AE5
:1014A000F8D1034B9847002008BD00BF000008405A
:1014B000ED13400008B51020064B9847064B7222EA
:1014C0009A60DA6111225A654FF4E0625A6005228F
:1014D0001A6008BD6DAD40000000084000280CBF38
:1014E00004200020704701207047000063B32A48A1
:1014F000436D43F480734365284BB3EB410F33D303
:1015000010B42748B0FBF1F301FB130111BB023B00
:101510002149486820F0FF0048604C68C3F3470049
:101520002043486013F0010F16D04B6843F480331A
:101530004B60042A16D0082A0CBFC0220022164B8A
:10154000DA605DF8044B70471348436D23F48073F1
:101550004365D1E7013BDBE70F494B6823F4803358
:101560004B60E6E78022EAE70B4B596821F0FF0168
:1015700059605968596008494B6823F480334B60BF
:10158000042A06D0082A0CBFC0220022024BDA60CF
:1015900070478022FAE700BF00000840FFD7B80577
:1015A00000D8B80570470000074B5A6822F4605213
:1015B0005A6000221A614FF410625A611A46136C85
:1015C00013F0010FFBD070470000084010B5084B26
:1015D0005A6822F460525A605A6822F400425A60F3
:1015E00000249C610A4601462046024B984710BDE4
:1015F0000000084015144000014B186A704700BFF6
:101600000000084010B4031D1430094C226A110E6A
:1016100003F8041C110C03F8031C110A03F8021C44
:1016200003F8012C04338342F0D15DF8044B70477A
:101630000000084070B59DF8104074B3294D6C68E7
:1016400044F400446C60274D6C6844F4C0546C60F2
:1016500012F0030F27D06C6844F400546C6000F45F
:101660000044002C14BF4FF480344FF4A02410F435
:10167000803F1ED143EA02451A4EB56110F4003F87
:101680002AD110F4802F2AD110F4002F17D110F492
:10169000801F18BF44F4002411E0124D6C6824F43C
:1016A00000446C60CFE70F4D6C6824F400546C600C
:1016B000D5E744F40014C2F308050A4EB5610026CC
:1016C000094D2E60094D2A80094A13800A460146B9
:1016D0002046084B984770BD44F42014EFE744F4CB
:1016E0008014ECE7000008404C750020467500208F
:1016F000487500201514400008B51549154A0B6CB3
:1017000013421BD113F0020FF9D0114B1B6B036076
:10171000114A136804331360104A1188104A128862
:1017200002FB01F2934211D309490A4A0B6C13429E
:1017300008D113F0006FF9D0012008BD094B98477C
:10174000002008BD074B9847002008BD012008BDB8
:1017500000000840000060C04C7500204675002065
:1017600048750020ED134000154B1B8803FB01F169
:1017700010F0030F02D113F0030F1BD0114A53686E
:1017800043F4005353600F4BC3F800015B6813F43C
:10179000005F0CBF8B080B460A4AC2F804310023D5
:1017A000C2F814310120C2F82001074A13680B4423
:1017B00013607047034A536823F400535360E2E711
:1017C00046750020000008404C75002008B51549FA
:1017D000154A0B6C134216D113F4804FF9D0134BFA
:1017E0001A88134B1B8803FB02F3124A12689342B8
:1017F00016D80C490C4A0B6C13420DD113F0006F34
:10180000F9D0012008BD40F20222064BC3F8202186
:10181000094B9847002008BD074B9847002008BD9A
:10182000012008BD00000840000060C0467500208F
:10183000487500204C750020ED134000164B1B88A6
:1018400003FB01F110F0030F02D113F0030F1DD0C1
:10185000124A536843F400535360104BC3F8080115
:101860005B6813F4005F0CBF8B080B460B4AC2F891
:101870000C310023C2F81C314FF48073C2F82031C0
:10188000074A13680B44136001207047034A5368EA
:1018900023F400535360E0E7467500200000084041
:1018A0004C75002008B51549154A0B6C134216D12A
:1018B00013F4004FF9D0134B1A88134B1B8803FB0A
:1018C00002F3124A1268934216D80C490C4A0B6C68
:1018D00013420DD113F0200FF9D0012008BD0C4B9D
:1018E000984740F20222054BC3F82021002008BD92
:1018F000074B9847002008BD012008BD00000840A4
:10190000000060C046750020487500204C7500201E
:10191000ED13400030B485688468A54203D0856823
:101920008468AC42FBD161B1C4F3015000EB800587
:10193000C4F3034000EB450014F4800F18BF0C30D3
:10194000086042B1C4F3023101EB8101C4F303200A
:1019500000EB4101116043B1C4F3021202EB8202B9
:1019600004F00F0404EB42041C6030BC7047F0B478
:10197000049EC568C468A54203D0C568C468AC426B
:10198000FBD199B1C4F3033000EB8000C4F303270B
:1019900007EB4007C4F3021000EB800504F00F00D2
:1019A00000EB4500642505FB0070086042B1C4F3FC
:1019B000005081000844C4F3034101EB4001116071
:1019C00043B1C4F3017202EB8202C4F3036101EB81
:1019D00042021A6016B1C4F342543460F0BC70473E
:1019E000012801D90120704710B504460A4B9847D9
:1019F000032806D12046084B9847032801D101202F
:101A000010BD38B92046054B9847002814BF042064
:101A1000002010BD012010BD79134000A913400023
:101A200008B5054B984720B102280CBF03200120C0
:101A300008BD002008BD00BF791340002DE9F04F1C
:101A400083B080460D4614461F46154B984718B97B
:101A5000012003B0BDE8F08F064601A94046114BB6
:101A60009847B14606FB0742019B03FB06639A4277
:101A700001D90420EDE7BA4677B176020027DFF8F6
:101A800028B02A4621464046D84738B901374C4449
:101A900035445745F5D1DCE70020DAE70120D8E7E7
:101AA000A11340008D134000BD1340002DE9F04FFD
:101AB00083B080460D4614461F46154B984718B90B
:101AC000012003B0BDE8F08F064601A94046114B46
:101AD0009847B14606FB0742019B03FB06639A4207
:101AE00001D90420EDE7BA4677B176020027DFF886
:101AF00028B02A4621464046D84738B901374C44D9
:101B000035445745F5D1DCE70020DAE70120D8E776
:101B1000A11340008D134000D513400010B582B0D2
:101B20001446032927D8DFE801F01F070F0201231D
:101B30001360002002B010BD01A9114B9847019B12
:101B4000013323600020F5E70E4B9847082814D88E
:101B50004FF48B7323FA00F010F0010F01D1012034
:101B6000E8E700202070E5E7074B984700280CBF06
:101B700000200320DEE70420DCE70120DAE700BFD5
:101B80008D134000A11340007913400030B58BB095
:101B9000114C07AB08AA09A92046104DA84703AB72
:101BA000009304AB05AA06A920460D4CA047049B50
:101BB0001B04059843EA4053099843EAC023089858
:101BC00043EA4013079843EA50030698A0F2BC701A
:101BD00043EA40600BB030BD60180E40151940005C
:101BE0006F1940003AB101388A1811F8013B00F82A
:101BF000013F9142F9D1704722B1821800F8011BD0
:101C00008242FBD1704702398369023B99423DBF52
:101C10008378806A01FB030000207047024600F1D0
:101C20000B010020C30143EA500312F8010B50FAE4
:101C300083F3D8B28A42F5D17047000098B108B555
:101C400002780AB9092008BDC2888A4201D0092059
:101C500008BD4078054B984700F00100002814BFEC
:101C60000320002008BD0920704700BF211A400052
:101C700038B5044601230A4600F1300140781D4D75
:101C8000A84708B1032038BD94F82F2294F82E32CB
:101C900043EA02231BB2184A934201D0022038BD06
:101CA00094F8692094F868301B0443EA026394F8BE
:101CB0006620134394F8672043EA022323F07F430E
:101CC0000E4A934213D094F8853094F884000004AF
:101CD00040EA036094F88230184394F8833040EA75
:101CE000032020F07F40801A18BF012038BD00205B
:101CF00038BD00BF3D1A400055AAFFFF46415400C1
:101D0000F8B503681C78303C092C0AD85D783A2D68
:101D100001D0002406E002330360072C02D90B2017
:101D2000F8BD0024AD4B53F824500D60002D00F099
:101D30003D8116462B787BB16878A94B984710F007
:101D4000010F09D1002E00F0338100F004000028BB
:101D50000CBF00200A20F8BD00232B70E0B2687091
:101D6000A04B984710F0010F01D00320F8BD26B119
:101D700010F0040F01D00A20F8BD002128469A4B2C
:101D80009847012806D00024032800F01381C8B129
:101D90000D20F8BD95F8F2310BB90D20F8BD95F87E
:101DA000F93195F8F841240444EA036495F8F631D2
:101DB0001C4395F8F73144EA0324214628468A4B10
:101DC0009847E1E795F83C2095F83B3043EA022339
:101DD0001BB2B3F5007F01D00D20F8BD95F8473058
:101DE00095F8462052EA03220DD195F8573095F820
:101DF0005620120442EA036295F854301A4395F8CB
:101E0000553042EA0322EA6195F840E085F803E0A4
:101E10000EF1FF33DBB2012B01D90D20F8BD95F88F
:101E20003D60AE70002E00F0C780731E334201D0BB
:101E30000D20F8BD95F8423095F8411041EA032194
:101E4000298111F00F0F40F0B98095F8440095F802
:101E5000433053EA00230DD195F8530095F85230E2
:101E60001B0443EA006395F85000034395F85100C2
:101E700043EA002395F83F0095F83E7057EA0027A3
:101E800000F09E8002FB0EFE07EB111070448342AF
:101E9000C0F098801B1AB3FBF6F3002B00F094807F
:101EA00040F6F576B3428CBF022601264FF6F57C4C
:101EB000634500F2A3800233AB612044A8623C4436
:101EC0002C62002900F0888074446C62022E0FBFDF
:101ED0005B0003EB430103F0010303EB510303F247
:101EE000FF13B2EB532F75D34FF0FF332B61002359
:101EF000EB604AE095F82F2295F82E3243EA022350
:101F00001BB23A4A93424BD195F8332095F83230C0
:101F10001B0443EA026395F83020134395F83120FF
:101F200043EA0223324A93423CD195F8172295F8AE
:101F300016321B0443EA026395F81422134395F802
:101F4000152243EA02232B4A93422DD195F81F22F2
:101F500095F81E321B0443EA026395F81C221343D2
:101F600095F81D2243EA0223EB6095F81B2295F8B1
:101F70001A321B0443EA026395F81822134395F8BA
:101F8000192243EA02232B6103262E701A4A138872
:101F900001339BB21380EB800020E8622871F8BD0A
:101FA0000326F2E70326F0E70326EEE70C20F8BD50
:101FB0000020F8BD0120F8BD0D20F8BD0D20F8BDB2
:101FC0000D20F8BD0D20F8BD0D20F8BD0D20F8BD89
:101FD0000D20F8BD0D20F8BD0D20F8BD5075002076
:101FE000211A4000E1194000711C400055AAFFFF72
:101FF0005252614172724161707500200233AB61CF
:102000002044A86227442F620029E1D195F85F009F
:1020100095F85E10090441EA006195F85C000143FF
:1020200095F85D0041EA002169629B0003F2FF130D
:10203000B2EB532FCAD34FF0FF332B610023EB6079
:102040006B7195F8613095F8602042EA03222244D2
:102050006A61012305F130016878034CA04700282C
:102060003FF448AF032690E73D1A40002DE9F047C2
:10207000C76A8F4235D00E46044603791BB92EBB82
:102080000020BDE8F08700F1300801233A464146C0
:102090004078184DA84738BB00232371236AE269B2
:1020A00013449F42EBD2E578012DE8D94FF0010AA5
:1020B000DFF84090E3691F4453463A464146607852
:1020C000C847013DEDB2012DF4D1D8E701233246D6
:1020D00004F130016078084DA84740B9E662BDE8D8
:1020E000F0870020BDE8F0870120BDE8F0870120DF
:1020F000BDE8F087AD1A40003D1A400001296AD9B9
:10210000F8B58369994268D20C4606460378022BDB
:102110002FD0032B41D0012B02D04FF0FF30F8BD60
:1021200001EB5107016A01EB57212D4B984710B184
:102130004FF0FF30F8BDC7F30803334493F8305035
:102140000137316A01EB57213046254B984710B1D2
:102150004FF0FF30F8BDC7F30807F01990F83000D2
:1021600045EA002014F0010F14BF0009C0F30B0072
:10217000F8BD016A01EB1421194B984710B14FF0DB
:10218000FF30F8BD600000F4FF70304490F831304B
:1021900090F8300040EA0320F8BD016A01EBD41149
:1021A0000F4B984710B14FF0FF30F8BDA00000F47E
:1021B000FE7000F130023244D17893781B0443EA78
:1021C0000163304490F830001843537840EA03200C
:1021D00020F07040F8BD012070470120F8BD00BF1D
:1021E0006D204000F8B505460C46C1808168012984
:1021F0003DD003689A69914201D30220F8BD61B9CC
:102200001A78032A06D00022EA601A89A24221D84D
:102210000220F8BD596A0029F5D09E783601B442F3
:1022200010D3174F2868B8470146B0F1FF3F20D0C0
:10223000012820D92B689B6998421ED2A41BA4B206
:10224000A642EFD9E96028680E4B984700EB1410BE
:10225000286103E05B6A03EB14132B612B683033B6
:1022600004F00F0403EB44146C610020F8BD02205D
:10227000F8BD0120F8BD0220F8BD0220F8BD00BF66
:10228000FD204000071C40002DE9F041012940F2EB
:102290008F808369994201D302278AE015460C4654
:1022A00006460378022B4ED0032B5FD0012B03D0C0
:1022B0000227012333717CE001EB5108016A01EB35
:1022C00058213D4B984707460028F2D1C8F3080330
:1022D00014F0010F1CD0334493F8302002F00F02A9
:1022E00042EA051283F8302008F101080123337116
:1022F000316A01EB582130462F4B9847002853D1C3
:10230000C8F30808C5F30712B04488F83020D0E7B6
:10231000334483F8305008F1010801233371316AE6
:1023200001EB58213046244B984700283ED1C8F392
:10233000080806EB080393F8303023F00F03C5F3C9
:1023400003221A43E0E7016A01EB14211A4B984774
:1023500007460028ADD1630003F4FF73334483F8CC
:102360003050C5F3072283F83120A2E7016A01EB60
:10237000D411114B9847074600289AD1A10001F4C7
:10238000FE7101F130033344DA781206314402F071
:1023900070422A4381F83020C2F307215970110C92
:1023A0009970120EDA7084E7074682E7074680E7E5
:1023B00002273846BDE8F0816D2040002DE9F0414C
:1023C0000546884641B9C66886B183699E4228BFE2
:1023D00001263446274F17E0264B9847034601282D
:1023E0003ED9AA69904240D34646F2E70126F0E77B
:1023F00021462846B847034670B1B0F1FF3F34D0BC
:10240000012832D0B4422FD00134AB699C42EFD3C3
:10241000012E27D90224EBE76FF0704221462846AF
:10242000154B98470346A8B9B8F1000F0AD1EC60E4
:102430002B69B3F1FF3F1BD0013B2B6101236B7173
:10244000234612E02246414628460B4B9847034656
:102450000028ECD0012B0CBF4FF0FF33012304E028
:10246000012302E0002300E000231846BDE8F081CC
:102470002346FAE7FD2040008922400001292ED999
:102480002DE9F84304460E468369994203D302229C
:102490001046BDE8F883164F4FF00009DFF854806E
:1024A00003E02E46A369AB42F2D931462046B84735
:1024B0000546B8B1012817D0B0F1FF3F16D04A4603
:1024C00031462046C04702460028E1D12369B3F1D6
:1024D000FF3FE6D00133236101236371E1E702226C
:1024E000104670470022D3E70222D1E70122CFE74E
:1024F000FD204000892240002DE9F84FC4880134B6
:10250000A4B214B90420BDE8F88F036913B90420FC
:10251000BDE8F88F0E46054614F00F0710D10133C1
:102520000361C16831B903681B89A34208D804203C
:10253000BDE8F88F00688378013B13EA141308D0D4
:10254000EC802B68303303EB47136B610020BDE850
:10255000F88F324B9847804601284DD9B0F1FF3FA4
:102560004DD02868836998453ED316B90420BDE84C
:10257000F88FE9682A4B9847804610B90720BDE8D4
:10258000F88F01283ED0B0F1FF3F3ED000212868EF
:10259000244B984700283BD128684FF40072002153
:1025A0003030214B98472E68414630461F4B9847A4
:1025B000F06200264FF0010BB246DFF868902B68FE
:1025C0009978F2B291420BD983F804B05146286849
:1025D000C8470136F8B92A68D36A0133D362EEE7F7
:1025E0001646DA6A961BDE62C5F80C8041462868FA
:1025F0000E4B98472861A3E70220BDE8F88F012021
:10260000BDE8F88F0220BDE8F88F0120BDE8F88F03
:102610000120BDE8F88F0120BDE8F88FFD204000C3
:10262000BD2340006D204000F91B4000071C400006
:102630002DE9F04F85B005460021624B9847804652
:1026400008BB4FF0FF0BD9465F4FDA4695E00F2AE3
:102650001DD0B9F1000F04D120465C4B984782454C
:1026600011D04FF6FF732B84AB69DA7A12F0010FA9
:102670007AD104F10B0014F8011B13F8012B9142DD
:102680006CD1A042F7D1404605B0BDE8F08FD5F837
:102690001C80B8F1000F69D016F0400F0CD094F8F0
:1026A0000DA006F0BF06EB882B8494F80DB0D3453F
:1026B00008D04FF0FF0959E0B14518BF4FF0FF09AE
:1026C00054D1F2E794F800A02AF0400A0AF1FF3A48
:1026D0000AEB4A030AEB8303DFF8FC9009F10D0AC9
:1026E00001200396CDF804B01E4602950FE018466F
:1026F000374B98478346FE2E5BD8751C38F816007A
:10270000334B9847834558D12E46D14513D019F8FD
:10271000012BA3185978A35C43EA01230028E6D1D2
:102720004FF6FF729342F0D0DDF804B0029DDA4616
:102730004FF0FF091AE0DDF804B03246039E029D17
:10274000237813F0400F04D018B138F81230002B62
:10275000EDD1013E5FFA86F9DA4607E04FF0FF0956
:1027600004E04FF0FF0901E04FF0FF090021284687
:10277000184B98478046002885D129692868B847B2
:10278000804600287FF47FAF6C69267876B1E37AC3
:1027900003F03F02E52EE4D013F0080F3FF457AFEB
:1027A0000F2A3FF474AF4FF0FF09DFE74FF0040842
:1027B00069E7DDF804B0029DB9E7DDF804B0029DD9
:1027C000B5E700BFE52140006D2040001D1C400022
:1027D0005D384000F9244000F8DC40002DE9F04F5E
:1027E00089B004468569D0F81CB00C22294605A89A
:1027F000A84B98479DF81F3013F0010F79D00023A4
:10280000EB72E3610B2205A92846A24B98470127EA
:102810003B464FF02008DFF89C92DFF878A232E0C8
:102820003B4630E0134602E0002300E013462B4411
:1028300005E0414603F8011B591B072907D8072A61
:10284000F7D808A9114411F8141C0132F2E7204608
:10285000C847064600283ED10137BFB2642F38D0A2
:102860000B2205A92846D047052FD9D93B46594602
:10287000DA0342EA530331F8022B12FA83F39BB2D4
:102880000A88002AF4D10DF11306072203F00F0085
:1028900000F13001392988BF00F13701013A06F80B
:1028A0000119C3F30F13002BF0D17E2108AB1344A1
:1028B00003F8141C002AB5D02B78202BB4D029465D
:1028C000002301339A42B1D011F8010F2028F8D12A
:1028D000ADE7072604E0642F00F09F80042803D0B2
:1028E000304609B0BDE8F08F9DF81F30EB72C4F898
:1028F0001CB09DF81F3013F0020F14D0BBF800304D
:102900007BB1002301339BB23BF81320002AF9D19D
:102910001933614F87FB0327DB17C3EBA707BFB250
:1029200002E00023F4E70127002120465B4B984793
:1029300006460028D4D14FF0000A5546DFF86881DA
:10294000D346DFF860910AE06B1C9BB29F4266D0D1
:102950001D4601212046C84706460028C0D12169EE
:102960002068C04706460028BAD163691B78E52B6A
:1029700000D023B9002DE7D1B4F806A0E4E75D4606
:10298000E7E751462046454B984706460028A7D121
:10299000A069434B984700900027019719E07146C2
:1029A00062E04FF6FF72934202D039F811300BB952
:1029B0004BF0400B80F800B0236801221A713946B1
:1029C0002046384B98470646002889D1013DADB2D4
:1029D0003DB321692068344B9847064600287FF4B0
:1029E0007FAFD4F81C9060695FFA85FB9DF80030DA
:1029F00043730F23C37207738776C7760BF1FF31DA
:102A000001EB410301EB8301284A02F10D08019B10
:102A10004FF6FF764FF0FF0A29E0072660E7012B0B
:102A2000AFD821692068204B9847064600287FF4DC
:102A300057AF65692022002128461D4B98470B227D
:102A4000A1692846134B9847A369DB7A03F0180362
:102A50002B73236801221A7142E792F800E000F814
:102A60000EA086448EF801A00132424599D0B342AF
:102A7000F3D001F1010E39F81130117843540144BB
:102A80004FEA132C81F801C0002B88D171463346E0
:102A9000EAE700BFE51B40004FECC44EE5214000D3
:102AA0001D1C4000F92440006D204000F8DC40006F
:102AB000F91B4000312640002DE9F84F04464FF045
:102AC000FF094E460425404F4FF6FF785AE00F2984
:102AD00046D113F0400F0BD090F80D9003F0BF03D8
:102AE000E288228490F80DE0CE4506D0FF2643E030
:102AF0009E4218BFFF263FD1F4E7D4F81CA0067809
:102B000006F03F06013E06EB460206EB82062F4921
:102B100001F10D094FF0010C03E042454BD189450D
:102B200011D011F8015B421992F801B0425D42EAFE
:102B30000B22BCF1000FF0D0FE2E3CD82AF8162054
:102B400094460136EBE7027812F0400F04D0FE2ED7
:102B500031D800222AF81620013BDEB2F1460BE004
:102B60001EB91B4B984781452BD04FF6FF7323842A
:102B700027E0FF2600E0FF2600212046154B98475E
:102B80000546E0B92169A1B12068B8470546B0B94A
:102B90006069037893B1E52BEBD02E2BEBD0C27A92
:102BA00002F03F0112F0080F91D00F2991D0FF26BB
:102BB000E2E735B103E0F146FF26DDE70425002317
:102BC00023612846BDE8F88F6D204000F8DC400006
:102BD0001D1C4000F92440002DE9F0410446C58841
:102BE000018C4FF6FF73994208BF2946104B984756
:102BF0000346C8B90F4EE527DFF83C8021692068FD
:102C0000B047034668B962691770226801211171E3
:102C1000E288AA4208D200212046C0470346002885
:102C2000ECD0042B08BF02231846BDE8F08100BF9A
:102C3000E52140006D204000F924400070B50446B5
:102C400000212D4B9847034650B92378032B09D018
:102C5000002211466078294B9847031C18BF0123B6
:102C6000184670BD6379002BF2D00026E66204F1AD
:102C700030054FF4007231462846214B98475523C2
:102C800084F82E32AA2384F82F32522384F830306D
:102C900084F83130612384F83230412284F83320C3
:102CA000722184F8141284F8151284F8162284F81C
:102CB0001732236984F81832C3F3072284F81922E3
:102CC0001A0C84F81A221B0E84F81B32E36884F86D
:102CD0001C32C3F3072284F81D221A0C84F81E222A
:102CE0001B0E84F81F320123626929466078054D66
:102CF000A8476671ACE700BF6D2040001D1B400077
:102D0000F91B4000AD1A40002DE9F04F83B0824618
:102D100088460B782F2B0CD05C2B0AD00023CAF8E6
:102D2000083098F800301F2B06D9DFF8F49244469B
:102D30000CE008F10108F1E700215046B24B98473A
:102D400003460022CAF814202EE11C4627462346DB
:102D500013F8010B2F28F8D05C2808BF1C46F5D0CB
:102D6000DAF81CB080B21F2840F22D812F2800F025
:102D70002F815C2800F03581ABF102060125A846C1
:102D800012E073BB26F8022F6B1C14F8010F1F28EA
:102D900040F21B812F2800F01D815C2800F01A8171
:102DA000B3F5807F1DD01D464146C8470246C0B1DD
:102DB0007F28E7D8222800F0F6802A23934998B28A
:102DC0009042DED011F8013F002BF8D1DAE7013D47
:102DD00000F0E98032F8023D202BF8D02E2BF6D0FF
:102DE0000DB90623E0E06F004FF000082BF81580C6
:102DF0000B222021DAF81800854B9847ABF102012D
:102E0000434600E0013331F8022F202AFAD02E2A5F
:102E1000F8D00BB146F00306023F0BEB07023BF87C
:102E200007102E2905D0013D03D032F8021D2E29AE
:102E3000F9D1082200924FF00008CDF8048005E097
:102E4000AF4200F0D18046F003063B465F1C3BF8E2
:102E5000130050B32028F6D02E28F1D0009B9845BF
:102E600019D2AF4200F0C0807F286CD82B2879D0CF
:102E70002C23684A99B2814272D012F8013F002B8C
:102E8000F8D1A0F141039BB2192B76D8019B43F0F6
:102E90000203019369E0009B0B2B48D0AF4200F086
:102EA000A68046F0030640F2A280DAF818301A78BD
:102EB000E52A45D0009B082B6BD0019A02F00C0349
:102EC0000C2B6DD002F00302032A69D016F0020F1A
:102ED0000BD1019A02F0030BBBF1010F08BF46F0C2
:102EE0001006042B08BF46F00806DAF81830DE7228
:102EF0005046494B9847DAF81830DA7A03460028EA
:102F000056D112F0040F4FD1DAF81420D37A13F00F
:102F1000100F56D0517D137D43EA0121D07E937E60
:102F200043EA002343EA0143CAF808300EE746F0BB
:102F30000306DAF818301A78E52ABED10B2200927F
:102F400005221A70B6E70021C8470346002858D06A
:102F5000324A134413F8800C46F0020610B185E79C
:102F6000002B8ED046F003065F20DAF8183003F805
:102F700008003B4608F1010868E7A0F161039BB235
:102F8000192BF2D8019B43F001030193203880B242
:102F9000EBE7019B4FEA830B5FFA8BF301938CE71E
:102FA00046F0020692E70623184603B0BDE8F08F0C
:102FB0000428F9D102F00402002A14BF03460523B5
:102FC000F2E70523F0E701230025FC18042603E0BF
:102FD00001230025FC180026002DE4D00BEB450250
:102FE000F8E601230025F5E7009B0B2B9FD0019B02
:102FF0009B00DBB201932B460B2200924FF0080896
:1030000024E746F00206ADE7E521400089DD4000F7
:10301000F91B400095DD40003126400008DD4000EE
:103020001D384000072801D90B207047064B53F884
:1030300020300BB100221A7009B100230B70024B33
:1030400043F8201000207047507500202DE9F04112
:10305000ADF50E7D0546019116460023036002F092
:103060001F0702F01E0285A901A8584B984782ABA2
:103070008B9302AB8C9340B103468A9C16F01C0FD5
:1030800017D1002B40F092800DE0019985A8504B9C
:1030900098478A9C03460028F0D1002C00F08B80D2
:1030A00016F01C0F16D1E37A13F0100F4FD0042343
:1030B0007CE0042B05D047F008078A9C002B57D0F2
:1030C00074E085A8434B984747F008078A9C03465D
:1030D00038B16BE0E37A13F0110F73D116F0040FDF
:1030E00072D117F0080F3FD03B4B9847A073C0F345
:1030F0000723E373030C2374000E60740023E37250
:1031000023776377A377E377627D267D46EA0226FD
:10311000E17EA27E42EA0122A376E37623756375FF
:1031200085980123037152EA06461BD0D0F82C8003
:1031300031462A4B98470346002837D18598013EEF
:10314000C6604146264B9847034658B12EE016F01C
:10315000020F04D013F0010F01D0072326E016F070
:10316000080F01D047F02007859BDB6AEB612C62DA
:10317000AF71627D237D43EA0222E17EA37E43EAB2
:10318000012343EA02432B61E27FA37F1B0443EA4E
:103190000263227F1343627F43EA0223EB60002332
:1031A000AB60AB61859A2A60D288AA8018460DF57B
:1031B0000E7DBDE8F08116F01C0F01D106237DE7DE
:1031C000062378E70723F1E70823EFE7011D400016
:1031D000092D4000DD2740008D1B40007D2440006C
:1031E0006D2040002DE9F04F83B004468946154616
:1031F00098460023C8F8003081880068584B9847EB
:103200000190002840F0A880A37913F0800F40F0CF
:10321000A18013F0010F02D1072301939CE0E6681F
:10322000A368F61AAE4228BF2E46002E4CD193E07A
:1032300061694C4B984757E0A37963F07F03A37112
:103240000223019388E0A37963F07F03A371012334
:10325000019381E0A37963F07F03A37102230193BB
:103260007AE0A37963F07F03A3710123019373E0F4
:103270004FF40072303109EB40203B4B98475FE040
:10328000A561A568C5F30805C5F50075B54228BF59
:103290003546A1692068354B9847002853D1A1686D
:1032A000C1F30801303123682A46194448462E4BA1
:1032B0009847A944A3682B44A360D8F800302B4456
:1032C000C8F80030761B47D0A268C2F30803002B71
:1032D000D7D120688378013B03EA522313F0FF071C
:1032E00008D1002AA4D120690128A5D9B0F1FF3F57
:1032F000A9D06061D4F800A0616950461C4B984782
:1033000005460028A6D03D445FEA562BB8D09AF86F
:10331000023007EB0B029A4288BFA3EB070B5FFA60
:103320008BF32A4649469AF80100124FB847002805
:1033300097D121680B791BB1C86A401B834597D888
:103340004FEA4B25B5E7A37963F07F03A37101230F
:10335000019301E002230193019803B0BDE8F08FCF
:103360003D1C4000FD204000E51B40006D2040005A
:10337000071C40003D1A40002DE9F04F83B0044681
:103380008946164698460023C8F8003081880068B0
:10339000754B98470190002840F0E280A37913F024
:1033A000800F40F0DB8013F0020F02D1072301935E
:1033B000D6E0E368F3420ED2002E74D10BE0002178
:1033C0006A4B98470346206103E06169674B984761
:1033D0000346002B7AD1A368E268934288BFE3607A
:1033E000A37943F02003A371BAE0A37963F07F03CC
:1033F000A37102230193B3E0A37963F07F03A37168
:1034000001230193ACE00021594B9847002868D074
:10341000A37963F07F03A37101230193A0E0A37953
:1034200063F07F03A3710223019399E0A37963F012
:103430007F03A3710123019392E04FF4007209EB23
:10344000412130304B4B9847236800221A716CE0C1
:10345000A268E3689A426BD2A561A568C5F3080526
:10346000C5F50075B54228BF3546A1692068404BB7
:10347000984700286BD1A068C0F30800303023685B
:103480002A46494618443B4B9847236801221A7143
:10349000A944A3682B44A360D8F800302B44C8F893
:1034A0000030761B97D0A268C2F30803002BD4D15A
:1034B00020688378013B03EA522313F0FF070BD106
:1034C000002A82D12369002B3FF479AF012B8CD0E5
:1034D000B3F1FF3F90D063612068C26AA3699A424A
:1034E00091D0D4F800A061695046234B9847054617
:1034F000002894D03D445FEA562BA9D09AF80230B8
:1035000007EB0B029A4288BFA3EB070B5FFA8BF322
:103510002A4649469AF80100184FB847002885D135
:103520002068C16A491B8B4587D84FEA4B25AFE716
:10353000002150460E4B984710B92368DD628BE797
:10354000A37963F07F03A3710123019308E0A379BA
:1035500063F07F03A3710123019301E00223019330
:10356000019803B0BDE8F08F3D1C4000BD23400032
:103570006D204000E51B4000071C4000AD1A4000D4
:1035800038B50446818800681F4B9847034618B930
:10359000A27912F0200F01D1184638BDE1692068E8
:1035A0001A4B984703460028F6D1256AEB7A43F078
:1035B0002003EB72E3682B77A3891B0A6B77E389FF
:1035C000AB77E37BEB772369AB76238A1B0AEB7639
:1035D000638A2B75638A1B0A6B750D4B9847A87518
:1035E000C0F30723EB75030C2B76000E6876A379E6
:1035F00023F02003A371236801221A712068054B70
:1036000098470346C8E700BF3D1C40006D204000BE
:103610008D1B40003D2C400010B50446034B9847DD
:10362000034608B900222260184610BD81354000CB
:103630002DE9F04F83B002AB43F8040D8A461546DE
:10364000002229461846394B9847804600285DD10C
:103650002B681A699C69A11E8A4209D91F78012F1B
:1036600009D0196A002210461646DFF8C8902FE0EC
:10367000CAF800204AE0022400262D4F04E001345D
:103680002B689B699C424BD221462868B847B0F111
:10369000FF3F43D0012846D00028F0D10136EEE7A5
:1036A000022F22D092F803E093781B0443EA0E63C2
:1036B00092F800E043EA0E0392F801E043EA0E2399
:1036C00033F0704308BF013604320438013C17D090
:1036D0000028E5D101F1010B2868C84778B92A68AC
:1036E000303259464FF40070DAE792F801E013786F
:1036F00053EA0E2308BF013602320238E6E780465D
:103700002B681E61032F05D0CAF80060404603B045
:10371000BDE8F08F2B6801225A71F5E74FF00108E0
:103720002B681E61F0E74FF00208F9E7011D400029
:10373000FD2040006D20400010B5ADF5187D0190D2
:1037400001228FA901A82D4B9847034618B11846AE
:103750000DF5187D10BD83AB959303AB969301993E
:103760008FA8274B984703460028F0D1949B002B45
:103770003ED0DA7A12F0010F3CD15A7D1C7D44EA2A
:103780000222D97E9C7E44EA012444EA0244DB7A88
:1037900013F0100F0BD18FA81A4B9847034600283F
:1037A000D5D1DCB98F98184B98470346CFE7012C49
:1037B0001CD924228FA986A8144B984788940221EB
:1037C00086A8134B984703460028C0D186A8114B02
:1037D0009847034680B10428DDD0B8E721468F988A
:1037E0000D4B984703460028B1D1DBE70223AEE733
:1037F0000623ACE70723AAE70723A8E7011D40003B
:10380000092D4000D92B40003D2C4000E51B400015
:10381000E5214000B92A40007D2440007F2819D9C5
:1038200071B9C72813D00C4A012332F8021F814214
:1038300003D001339BB2802BF7D18033D8B27047CD
:10384000FF2806D88038044B33F810007047002357
:10385000F3E70020704700BF9CDD4000612810D0D6
:10386000094901226223984205D0013231F8023F12
:10387000002BF8D103E018B1044B33F81200704765
:1038800070470022F8E700BF9EDE40007CE0400069
:1038900000B583B001220DF107011048104B984785
:1038A00072B6BFF35F8F00220E4B1A700E4B1B785F
:1038B0009DF807100D4AD1549B2B0BD001330A4AB7
:1038C00013700122074B1A70BFF35F8F62B603B00B
:1038D0005DF804FB0022044B1A70F2E700000A4076
:1038E000C1A640001800002010760020747500204A
:1038F000431E9BB2FF2B04D8431E184203D0002066
:1039000070470020704701207047B0F5805FACBF62
:10391000002001207047013880B21E288CBF002093
:103920000120704701288CBF00200120704701282A
:10393000CCBF0020012070470228CCBF002001200E
:1039400070470128CCBF0020012070470128CCBF60
:1039500000200120704728B1042801D000207047C2
:1039600001207047012070470228CCBF00200120B1
:103970007047B0F57A7FCCBF002001207047042843
:10398000CCBF002001207047FF3818BF01207047CE
:103990000428CCBF00200120704701207047002080
:1039A000704700002DE9F843384B1B681BB3384DB6
:1039B00000212846374CA047064601212846A0474B
:1039C000074603212846A047804604212846A047F1
:1039D000814605212846A04716F4000F0DD117F4A3
:1039E000000F19D118F4000F24D119F4000F30D1B1
:1039F00010F4000F3CD1BDE8F883244C2168043159
:103A00002846254B98472368002283F8D1200122BD
:103A100083F8D020BDE8F8831C4C216824311C4871
:103A20001D4B98472368012283F8D12083F8D020CA
:103A3000BDE8F883154C216848311548164B984766
:103A40002368032283F8D120012283F8D020BDE827
:103A5000F8830E4C216868310D480F4B9847236856
:103A6000042283F8D120012283F8D020BDE8F88316
:103A7000064C21688C310648074B9847236805227D
:103A800083F8D120012283F8D020B4E714760020F7
:103A9000004001402DA94000D1A94000F0B585B0FB
:103AA0000446002580F8D05080F8D15080F8D250DC
:103AB00080F8D35080F8D45080F8D5104FF4807738
:103AC0003A462946F4300E4EB0473A46294604F5A8
:103AD000FA70B047C4F8F45284F8F85284F8F952F6
:103AE0000395029501950123009323464FF400624C
:103AF00004490548054DA847204605B0F0BD00BF64
:103B000087C240005CE240009D4D40005996400055
:103B100090F8D43003B9704770B516460D46044688
:103B200040F25C500C4B98470C4A02EA8642C4F8BB
:103B3000C020042684F8B660C4F8C8500023C4F836
:103B4000CC30074D04F1B0012846064B984731466A
:103B50002846054B984770BD010000200000FC1F5F
:103B60000040014029AA400021A940000023042B65
:103B70000ADC10B451F8234003F1360240F8224029
:103B80000133042BF6DD10BC7047C0F8F01070470D
:103B9000C0F8EC107047000030B583B00446C3692C
:103BA0001A0FC3F30B43363250F82250002D49D080
:103BB000062B54D8DFE803F0040A18222C3A400000
:103BC0002846294B9847014601233EE002A90023DD
:103BD00041F8043D2846254B984708B1019901E07A
:103BE00041F20301012330E02846214B984701466A
:103BF0002846204B98470146012326E028461E4BC5
:103C00009847014628461B4B9847014601231CE074
:103C100028461A4B984701462846164B984718499C
:103C200081FB0031A1EBE07101230EE02846154B2A
:103C300098470146012308E02846134B9847014660
:103C4000012302E0002341F2050113B9E38F41EAA9
:103C50000341228820460D4B984703B030BD002316
:103C600041F20701F1E700BFF55240000155400065
:103C7000156940001D5540006169400079694000A8
:103C8000ABAAAA2AF163400091694000113B4000B1
:103C900010B5D0F8A4301D4A93421FD01C4A93425D
:103CA00027D090F8F8221AB3D0F8F4124A1C014435
:103CB00081F8F430511CC3F30724024482F8F44025
:103CC0004A1CC3F30744014481F8F440511CC0F876
:103CD000F4121B0E104480F8F43010BD90F8F93245
:103CE00073B9012180F8F812B0F88820094B984781
:103CF00010BD90F8F83233B1012180F8F912F3E7E2
:103D000041F20201F0E741F20201EDE70D0C0B0A6E
:103D10000A0B0C0D113B400090F8D50040EA012041
:103D2000704700230360037143718371C371836023
:103D3000C360036143618361C361704770B50C4622
:103D400016461D460846094B9847266001232371F5
:103D50000423A3716FF06043E360054B03EA8543DE
:103D6000236121460348044B984770BD233D400022
:103D70000000FC1F004001404FA9400038B50C4630
:103D800015460846074B98472560032323710F23E8
:103D9000E37100236371E36021460348034B9847B6
:103DA00038BD00BF233D4000004001404FA9400006
:103DB0002DE9F041044626203A4B98474FF4FA7219
:103DC00039493A483A4B984730B9002384F8D430FF
:103DD000384A1360BDE8F081364B1C60012784F837
:103DE000D470324D4FF0FF312846334B9847284668
:103DF000324B984700212046314EB0471FFA80F8D9
:103E0000A4F8008039462046B04760800321204650
:103E1000B047A4F8440004212046B047A4F8460067
:103E200005212046B047A4F8880043460022211D02
:103E30002046244EB04763883A4604F124012046C8
:103E4000B047B4F84430032204F148012046B0479B
:103E5000B4F84630042204F168012046B047B4F8B3
:103E60008830052204F18C012046B047022204F17B
:103E7000B0012046144B984739462846134CA047BA
:103E800002212846A04708212846A047102128469D
:103E9000A04720212846A04740220D4B5A60BDE88C
:103EA000F08100BF6DAD400000D8B8050040014072
:103EB000B5AA4000147600201DA9400091AA400038
:103EC000193D40003D3D40007D3D400019A94000A6
:103ED00000E100E0F8B507460E46B0F8462012496A
:103EE000124B98473046124B98470546002404E091
:103EF000B7F8462038460D4B9847AC420CD2002309
:103F00001946032BF4DC325DD80082401143AC42E9
:103F1000EED201340133F4E7B7F8462005493846BC
:103F2000024B9847F8BD00BF0D0C0B0A113B400037
:103F30008BC740000A0B0C0D30B583B0054602ABB1
:103F400003E906009DF800402146D0F8F0003D4B03
:103F50009847363455F82440BDF8043042F2010247
:103F6000934204D070B141F2060003B030BD20B9D5
:103F70002046354B98470120F7E7D5F8F000334B42
:103F80009847F5E7B3F5805F43D011D941F20302BA
:103F9000934248D01AD841F2010293423ED041F2F6
:103FA000020293424BD12046294B984780B2DCE76E
:103FB000012B1ED0C3B1022B20D0032B3FD12046B2
:103FC000244B984718BB41F20200CEE7B3F5005FDF
:103FD0002ED0B3F5405F32D1002120461E4B9847CA
:103FE00058BB41F20200C0E720461C4B984780B204
:103FF000BBE720461A4B984780B2B6E72046194BDC
:10400000984710B941F20200AFE70120ADE7012067
:10401000ABE72046144B984780B2A6E72046134BE7
:10402000984780B2A1E72046114B984780B29CE7A1
:104030002046104B9847012097E7012095E74FF461
:10404000805092E7617340006152400073734000FA
:10405000B9564000D55240009152400041544000B2
:10406000A1544000B552400035564000E553400091
:1040700079574000795240002DE9F04182B002A802
:1040800000E90C00BDF82050099B9DF828809DF8A0
:104090002C709DF83060009A4AB10C4673B12846E6
:1040A000984768B94FF4805002B0BDE8F081019A9A
:1040B00012F0010FF1D141F20700F5E70120F0E71E
:1040C00026B1002030B141F20400EDE72046104B4C
:1040D0009847F7E7019810F0010F0AD1009B294695
:1040E00004EB60009847B8F1000F07D157B90120E1
:1040F000DAE74310E258009BD358F0E72046054B1F
:104100009847F3E72046044B98470120CCE700BFCF
:10411000E5634000D5534000DD53400030B58BB01F
:10412000054606AB83E806009DF818402146D0F806
:10413000F0002C4B9847363455F824100023089390
:10414000099318B141F206000BB030BDBDF81A302A
:10415000A3F580730A2B42D8DFE803F006191D216E
:1041600025292D3539313D001F4B08931F48BDF8D7
:104170001C200023049303930123029301900092D7
:104180000AAB13E90C002846194CA047DCE7194B91
:1041900008931948EBE7194B08931948E7E7194BBF
:1041A00008931748E3E7184B08931848DFE7184BC4
:1041B00008930020DBE7174B08931448D7E7164B0A
:1041C00008931248D3E7154B08930020CFE7144B10
:1041D00008930020CBE7134B08930020C7E700208B
:1041E000C5E700BF6173400079644000F1384000CA
:1041F000794040007D6440000B39400081644000FC
:10420000173940008564400089644000253940002A
:104210009364400097644000A1644000AB64400098
:10422000AF644000B364400030B58BB0054606ABC8
:1042300083E806009DF818402146D0F8F0005F4B57
:104240009847363455F8241000230893099318B181
:1042500041F206000BB030BD0246BDF81A30A3F59E
:104260000073202B00F2A780DFE803F01124292D32
:104270003135393D4145494D5155595D6165696D4E
:104280007175797D8185898D9195999DA1004C4BA2
:10429000089301220024BDF81C000492002303931C
:1042A0000293019400900AAB13E90C002846454C98
:1042B000A047CFE7444B089301220024EBE7434B90
:1042C00008930024E7E7424B08930024E3E7414BBF
:1042D00008930024DFE7404B0893404CDBE7404B5A
:1042E0000893404CD7E7404B08933E4CD3E73F4BF5
:1042F00008933C4CCFE73E4B08930024CBE73D4B63
:1043000008930024C7E73C4B08930024C3E73B4BCA
:1043100008930024BFE73A4B08930024BBE7394BCE
:1043200008930024B7E7384B08930024B3E7374BD2
:1043300008930024AFE7364B08930024ABE7354BD6
:1043400008930024A7E7344B08930024A3E7334BDA
:10435000089300249FE7324B089300249BE7314BDE
:104360000893002497E7304B0893002493E72F4BE2
:10437000089300248FE72E4B089300248BE72D4BE6
:104380000893002487E72C4B0893002483E72B4BEA
:10439000089300247FE72A4B089300247BE7294BEE
:1043A0000893002477E7284B0893002473E7274BF2
:1043B000089300246FE700246DE700BF617340009D
:1043C000A553400079404000AB534000B15340003A
:1043D000B7534000BD534000C35340007339400001
:1043E000C953400025394000A9504000B550400055
:1043F000975140009D514000A3514000A9514000F9
:10440000AF514000B5514000BB514000C151400088
:10441000E3514000E9514000EF514000F5514000A8
:10442000FB51400001524000075240000D52400035
:104430002F524000355240003B5240004152400054
:10444000475240004D5240005352400059524000E4
:1044500030B58BB0054606AB83E806009DF81840E2
:104460002146D0F8F000354B9847363455F82410E3
:1044700000230893099318B141F206000BB030BD38
:10448000BDF81A30A3F540730E2B54D8DFE803F0C3
:10449000081B1F23272B2F33373B3F43474B4F002E
:1044A000274B08932748BDF81C20012304930023C1
:1044B00003930293019000920AAB13E90C00284683
:1044C000214CA047DAE7214B08932148EBE7214B29
:1044D00008932148E7E7214B08930020E3E7204BAE
:1044E00008930020DFE71F4B08930020DBE71E4BFB
:1044F00008930020D7E71D4B08930020D3E71C4BFF
:1045000008930020CFE71B4B08930020CBE71A4B02
:1045100008930020C7E7194B08930020C3E7184B06
:1045200008930020BFE7174B08930020BBE7164B0A
:1045300008930020B7E70020B5E700BF6173400093
:10454000F35040003939400079404000F9504000B4
:1045500043394000FF504000253940000B514000D6
:1045600011514000175140001D514000235140009F
:10457000295140002F514000355140003B5140002F
:1045800041514000475140004D51400030B58BB083
:10459000054606AB83E806009DF818402146D0F892
:1045A000F0001E4B9847363455F82410002308932A
:1045B000099318B141F206000BB030BDBDF81A30B6
:1045C000A3F58063042B27D8DFE803F003161A1E37
:1045D0002200134B0893134CBDF81C2000230493B6
:1045E000012003900293019400920AAB13E90C009E
:1045F00028460D4CA047DFE70C4B08930C4CEBE72B
:104600000C4B08930024E7E70B4B08930B4CE3E7B4
:104610000B4B08930B4CDFE70024DDE76173400090
:10462000535140004D3940007940400059514000FD
:104630002F3940005F5140006F5140005739400012
:10464000755140006939400010B582B00446C16B15
:104650000B0F8DF80030C1F30B42ADF80220ADF81E
:104660000410363350F82330002B36D0FF2A16DDE5
:10467000B2F5007F19DBB2F5407F1CDBB2F5806F2D
:104680001FDBB2F5A06F22DB41F20700E18F6288E9
:1046900040EA01412046124B984702B010BD02ABE0
:1046A00013E906000F4B9847F0E702AB13E9060049
:1046B0000D4B9847EAE702AB13E906000B4B98470E
:1046C000E4E702AB13E90600094B9847DEE702ABCB
:1046D00013E90600074B9847D8E741F20500D5E7F4
:1046E000113B4000393F40001D414000294240003D
:1046F000514440008D4540000A0AC9B2A2F110039E
:10470000DBB2EE2B02D841F201007047202902DD16
:1047100041F20100704780F8D22080F8D3100120C8
:104720007047000070B584B004460391D0F8F000E3
:104730006F4B984710F4004F40F0D780BDF80C3015
:10474000B3F5427F00F0A1801AD9B3F5806F00F075
:10475000AB804AD940F20162934200F0B18064D844
:1047600040F20152934200F0A580B3F5C06F00F013
:10477000A480B3F5A06F00F09A8009265D4B62E03B
:1047800040F20132934271D018D840F20222934293
:1047900063D009D9B3F5017F65D061D3B3F5407F0C
:1047A000EBD10A26544B4EE0B3F5007F49D040F2DE
:1047B00001229342E1D10026504B44E0B3F5417F02
:1047C0005AD007D940F20632934258D05AD80F2611
:1047D0004B4B38E040F2023293424AD040F203326F
:1047E0009342CAD10D26464B2DE040F20B32934244
:1047F00051D0B3F5437F0DD340F20D32934250D0E8
:10480000B3F5437F4AD940F20E329342B5D1182610
:104810003B4B18E040F20932934239D040F20A3261
:104820009342AAD11426364B0DE040F20362934224
:104830004CD048D340F2046293429ED10926314BBA
:1048400001E00226304BBDF80E502846984700285C
:104850003FD14FF4805004B070BD01262B4BF2E7DE
:104860000326274BEFE70426254BECE70B26244BCA
:10487000E9E70C26224BE6E70E26214BE3E710265C
:104880001F4BE0E711261E4BDDE712261C4BDAE733
:1048900013261B4BD7E71526194BD4E71626184BC2
:1048A000D1E71726164BCEE71926164BCBE71A266B
:1048B000134BC8E71B26124BC5E70526104BC2E772
:1048C00006260F4BBFE70726114BBCE70826114B06
:1048D000B9E7D4F8F00094F8D22094F8D3300095DA
:1048E00031460D4CA0470120B5E741F20600B2E782
:1048F000397340009F3940006939400091394000C8
:104900009B394000253940007F39400089394000FB
:1049100039394000433940008B7340002DE9F043A2
:10492000C5B0044601918DB2A5F5E063092B00F2F4
:10493000F080DFE813F00A0036008E00EE00B500CC
:10494000EE00C100C600EE00CB00BDF80630042B1F
:1049500002DD41F20101A5E0002214926E4A4021DD
:1049600024A86E4EB047D4F8EC006D4B984714AABB
:1049700024A9D4F8EC006B4B98470646D4F8EC0019
:10498000694B98472EB91498684B984741F2030138
:1049900088E014992046664B98471498634B9847D3
:1049A00087E0D0F8EC005E4B984704AA9DF806100B
:1049B000D4F8EC005F4B98470646D4F8EC005A4B0D
:1049C000984716B941F203016CE004AB5A4A402102
:1049D00014A8524EB04700230393D4F8EC00504B78
:1049E000984703AA14A9D4F8EC004E4B9847064602
:1049F000D4F8EC004C4B98471EB903984B4B9847A2
:104A0000E0E704AB4D4A802124A8444DA84724A8E0
:104A10004B4DA84706460398A84781463718781C8F
:104A2000484B98470546324624A9DFF82481C04701
:104A30004A460399A819C0470023EB5503983B4EFB
:104A4000B047039529462046394B98470398B0470D
:104A50002FE000231493BDF806303B4A402124A8E0
:104A60002E4EB047D4F8EC002D4B984714AA24A939
:104A7000D4F8EC002B4B98470646D4F8EC002A4BB0
:104A800098472EB91498294B984741F2030109E041
:104A900014992046264B98471498244B984708E0D1
:104AA000B0F8F412B4F8462041EA05412046274BFD
:104AB000984745B0BDE8F08300F1F4011C4B9847DE
:104AC000F7E700F5FA711A4B9847F2E744AE002376
:104AD00046F8803DD0F8EC00114B9847324604F57B
:104AE000FA71D4F8EC000F4B98470646D4F8EC0066
:104AF0000D4B98472EB924980C4B984741F203016F
:104B0000D0E7249920460A4B98472498074B9847AA
:104B1000CFE741F20701C5E768E2400005C6400063
:104B2000C57F4000018140003180400061C24000EB
:104B3000D53E4000658B400074E2400080E24000BA
:104B40008BC74000DBB2400090E24000113B4000C8
:104B500071C2400010B582B00446026EC2F30B432E
:104B6000ADF80430ADF80620A3F5E06292B2FF2A5A
:104B70000BD9B3F5817F10D040F2031293421BD0C2
:104B8000012B06D041F207001AE00199124B984719
:104B900020E01249124B98471CE002A9002341F87B
:104BA000083DD0F8F0000F4B984710B1BDF8000059
:104BB00006E041F2030003E0D0F8F0000A4B98470A
:104BC000D4F8802009491140B4F84620014320461A
:104BD000074B984702B010BD1D4940009CE24000C1
:104BE000D53E400005734000397340000000FF0FC0
:104BF000113B400030B583B00446019189B2A1F267
:104C00000371072956D8DFE801F0045515555525DD
:104C100055414FF480720021F430284B984700230F
:104C2000C4F8F43284F8F83284F8F93201252846C1
:104C300003B030BD90F8F93213B941F20205F6E73E
:104C40004FF4807200F1F40100F5FA701C4B9847A4
:104C50000125ECE790F8F93213B941F20205E6E7D5
:104C6000D0F8EC00174B984704F1F40204F5FA7100
:104C7000D4F8EC00144B984730B941F20205D4F84F
:104C8000EC00124B9847D2E70125F8E7D0F8EC008A
:104C90000C4B984704F5FA71D4F8EC000C4B98478C
:104CA00028B10125D4F8EC00084B9847BFE741F242
:104CB0000205F7E741F20705B9E700BF87C24000E8
:104CC00071C24000C57F40005180400031804000EB
:104CD000D181400010B582B00446D0F88010C1F3F5
:104CE0000B43ADF8043089B2ADF8061040F2011262
:104CF000934219D0B3F5807F19D0B3F5827F27D0C6
:104D0000A3F5E0639BB2FF2B31D901991B4B984768
:104D1000D4F880201A491140B4F8462001432046B7
:104D2000184B984702B010BD174B9847F0E7B1F504
:104D3000805F06D0C9B2D0F8F000144B984780B21B
:104D4000E6E7D0F8F000124B9847A0B10120DFE76A
:104D500002AA0F2302F8053DC9B2D0F8F0000D4BAE
:104D600098479DF8033040EA032080B2D0E70199CC
:104D7000094B9847CCE741F20200C9E725474000BC
:104D80000000FF0F113B4000F946400089724000CF
:104D900073734000E9764000F54B400008B506E02B
:104DA000164B9847164B1B68002283F8D020144BF3
:104DB000186890F8D030002BF9D090F8D130DBB2E1
:104DC000052BEFD801A252F823F000BFA14D4000FF
:104DD000E54D4000A54D4000EB4D4000F14D400039
:104DE000F74D4000074B9847DCE7074B9847D9E75A
:104DF000064B9847D6E7064B9847D3E7993B4000C8
:104E00001476002049464000554B4000D54C4000E8
:104E1000913C400030B583B00446002300931DE070
:104E2000019A13683BB3506810F0010F02D0421092
:104E3000A258D35801A904EB6000984702A941F891
:104E4000080D00231A46D4F8B4000D4DA8470023DE
:104E50001A4601A9D4F8B0000A4DA8470123002240
:104E600001A9D4F8B000074DA8470128D8D00A20DE
:104E7000054B9847F2E7516811F0010FEED0D2E7E9
:104E80000992400021944000D59B40002DE9F0415B
:104E900082B080460F4616461D46194B9847044679
:104EA00000238DF8003001238DF80130144B984712
:104EB000001BA8420AD23846124B9847864212D1AC
:104EC00001238DF8003000238DF80130BDF800304B
:104ED0000020DAB262F30700C3F3072363F30F2065
:104EE00002B0BDE8F0814046074B984718B900234F
:104EF0008DF80130EAE70520044B9847D6E700BF5C
:104F00008D994000EB634000E5634000D59B400075
:104F10002DE9F04186B004469DF8405004959DF877
:104F20003C5003959DF8385002959DF834500195FA
:104F30000C9D00954E4DA8470025A4F84650A4F8B6
:104F40004850A4F84A50A4F84C50A4F84E50A4F885
:104F50005050022384F8523084F8535084F854504F
:104F600084F8555084F8565084F85750012684F838
:104F70005860A4F85A50A4F85C50A4F85E50A4F805
:104F80006050A4F86250A4F86450A4F86650A4F8E5
:104F90006850A4F86A50A4F86C50A4F86E5041F21E
:104FA0008833A4F8703084F8726084F87350C82392
:104FB000A4F874304FF0040884F8768084F87760A1
:104FC000A4F87850A4F87A50A4F87C50A4F87E5045
:104FD000A4F88050A4F88250A4F88450A4F8865015
:104FE000A4F88850FA23A4F88A30A4F88C50A4F8C6
:104FF0008E30A4F89050A4F89250A4F89450A4F8DD
:105000009650A4F898506423A4F89A30A4F89C50C1
:10501000A4F89E30A4F8A050A4F8A230A4F8A4509C
:10502000A4F8A63084F8A85084F8A95084F8AA50AF
:1050300084F8AB5084F8AC602A460C2130460D4F02
:10504000B847C4F8B0002A4641463046B847C4F8CD
:10505000B40003950295019500962346D82206498F
:105060000648074DA847204606B0BDE8F08100BFBE
:10507000A5654000B5914000A4E24000154E4000F7
:105080005996400084B070B4064604AC84E80E0023
:105090000FCCC6F84600C6F84A10C6F84E20C6F82F
:1050A000523070BC04B07047003118BF012180F845
:1050B00054107047003118BF012180F85510704717
:1050C00084B070B4064604AC84E80E000FCCC6F879
:1050D0005600C6F85A10C6F85E20C6F8623007CCF3
:1050E000C6F86600C6F86A10C6F86E2070BC04B038
:1050F000704780F85610704780F85710704700319D
:1051000018BF012180F858107047A0F85A10704756
:10511000A0F85C107047A0F85E107047A0F860100F
:105120007047A0F862107047A0F864107047A0F8AC
:1051300066107047A0F868107047A0F86A107047B2
:10514000A0F86C107047A0F86E107047A0F87010AF
:10515000704780F87210704780F873107047A0F89D
:105160007410704782B0A0F8761002B0704780F8D3
:105170007610704780F87710704784B030B403AC75
:1051800084E80E0000F1780594E80F0085E80F0030
:1051900030BC04B07047A0F878107047A0F87A10BF
:1051A0007047A0F87C107047A0F87E107047A0F8F8
:1051B00080107047A0F882107047A0F884107047E4
:1051C000A0F88610704784B030B403AC84E80E00B9
:1051D00000F1880594E80F0085E80F0030BC04B0AA
:1051E0007047A0F888107047A0F88A107047A0F8A0
:1051F0008C107047A0F88E107047A0F89010704780
:10520000A0F892107047A0F894107047A0F896107C
:10521000704784B030B403AC84E80E0000F1980508
:1052200094E80F0085E80F0030BC04B07047A0F888
:1052300098107047A0F89A107047A0F89C1070471B
:10524000A0F89E107047A0F8A0107047A0F8A21018
:105250007047A0F8A4107047A0F8A610704700008F
:1052600008B5002280F8AA2080F8AC200121014B6B
:10527000984708BD2D69400008B5002280F8AB2092
:1052800080F8AC20014B984708BD00BFBD6C4000C2
:1052900038B504460D46054B984708B1002038BD87
:1052A00029462046024B9847012038BDE56340005F
:1052B000CD6C400010B50446044B984708B100205F
:1052C00010BD2046024B9847012010BDE563400009
:1052D0003D64400010B50446044B984708B10020D7
:1052E00010BD2046024B9847012010BDE5634000E9
:1052F000FD63400010B504461E4B984720B994F852
:10530000A930EBB1032010BD20461B4B9847013854
:10531000072813D8DFE800F0060429080A0C0E104D
:10532000072010BD092010BD0A2010BD0B2010BDA4
:105330000C2010BD0D2010BD0E2010BD0F2010BD83
:1053400094F8A8300BB1042010BD94F8AA300BB922
:10535000052010BD2046094B984708B1022010BD1A
:1053600094F8AB301BB9062010BD082010BD0120F9
:1053700010BD00BFEB634000F7634000E5634000F1
:1053800010B504460520054B98472046044B984726
:1053900018B10520014B9847F7E710BDD59B400099
:1053A000E5634000A0F846107047A0F84810704729
:1053B000A0F84A107047A0F84C107047A0F84E10A3
:1053C0007047A0F850107047003118BF012180F8D5
:1053D00053107047002380F8AA307047002380F8EC
:1053E000AB30704710B582B00446D0F8B4000F4B14
:1053F000984710B1032002B010BD0C200C4B984709
:1054000002A941F8040D0B4B0360002242601346D1
:10541000D4F8B000084CA047012805D00C21019811
:10542000064B98470220E6E70120E4E78995400013
:10543000B9B24000B963400009924000B5B24000E3
:1054400010B582B00446D0F8B400104B984710B1A4
:10545000032002B010BD0C200D4B984702A941F863
:10546000040D0C4B03600022426082601346D4F8A6
:10547000B000094CA047012805D00C210198074B2A
:1054800098470220E5E70120E3E700BF8995400047
:10549000B9B24000C155400009924000B5B2400089
:1054A00010B582B00446D0F8B400104B984710B144
:1054B000032002B010BD0C200D4B984702A941F803
:1054C000040D0C4B03600022426082601346D4F846
:1054D000B000094CA047012805D00C210198074BCA
:1054E00098470220E5E70120E3E700BF89954000E7
:1054F000B9B240008159400009924000B5B2400065
:1055000010B500231A46D0F8B400034CA047012878
:1055100014BF0020012010BD219440002DE9F84364
:1055200005460E46134C0088A0478046B5F8740027
:10553000A04707466888A047814630460E4B9847EB
:1055400005460E4C49464046A047014638460C4B9E
:10555000984701462846A0470146002E07DB4FF03A
:105560007C50084B9847084B9847BDE8F8834FF0AC
:105570003F40F6E731BD400039BD4000E1BD40008D
:1055800049BF4000D1BB40006DC1400010B504468A
:10559000084B9847032801DD002010BD2046064B2C
:1055A00098472046054B984784F8AA00002384F8C2
:1055B000AB3010BDF7634000E566400081704000ED
:1055C00038B50D68044B984704460C212846034B18
:1055D0009847204638BD00BF8D554000B5B2400009
:1055E0002DE9F04383B08146884617460122042105
:1055F0000B4B98470446002500952B462A4641460A
:105600004846084EB0470440E4B200952B463A465F
:1056100039464846044DA847204003B0BDE8F08312
:10562000316B4000416B4000B96B400041EA0040E3
:105630007047000070B582B00446D0F8B400184B33
:10564000984710B1032002B070BDB4F84810B4F808
:105650004600144B984706460C20134DA84701906E
:105660000420A84705460660019B104A1A600022E4
:105670005A6002A951F8043D98601346D4F8B0006E
:105680000B4CA047012808D00C210198094CA047D9
:1056900004212846A0470220D5E70120D3E700BF18
:1056A000899540002D564000B9B24000B15B4000E2
:1056B00009924000B5B240002DE9F04182B00446A5
:1056C000D0F8B4001B4B984718B1032002B0BDE8D6
:1056D000F081B4F84C10B4F84A00174FB847804630
:1056E0000820164EB0470546B4F84810B4F84600F6
:1056F000B84728604046124B984768600C20B04776
:1057000002A941F8040D0F4B03600022426085603E
:105710001346D4F8B0000C4CA047012808D00C2147
:1057200001980A4CA04708212846A0470220CDE74F
:105730000120CBE7899540002D564000B9B24000CA
:1057400031BD4000F95C400009924000B5B2400014
:1057500008B529B9044B98470449054B984708BD3B
:10576000044B9847F8E700BF31BD400000007A4481
:1057700049BF400039BD400070B582B00446D0F842
:10578000B4001C4B984710B1032002B070BD10202C
:10579000194EB0470546B4F84810B4F84600174B08
:1057A00098472860B4F84E306B600021B4F8500080
:1057B000134B9847A86094F853302B730C20B047D4
:1057C00002A941F8040D0F4B03600022426085607E
:1057D0001346D4F8B0000C4CA047012808D00C2187
:1057E00001980A4CA04710212846A0470220CCE788
:1057F0000120CAE789954000B9B240002D5640000B
:1058000051574000495F400009924000B5B2400046
:105810002DE9F04F83B090F8AA501DB9284603B087
:10582000BDE8F08F044690F8772090F876104E4B44
:1058300098470546B4F87A10B4F878004B4EB04754
:105840000746B4F87E10B4F87C00B0478046B4F840
:105850008210B4F88000B0478146B4F88610B4F8DE
:105860008400B047824601213846414EB047074682
:1058700001214046B047804601214846B047814655
:1058800001215046B04794F8763003B900270090C4
:105890004B46424639462046364EB0470540EDB2AB
:1058A000B4F88A10B4F88800304EB0470746B4F810
:1058B0008E10B4F88C00B0478146B4F89210B4F85A
:1058C0009000B0478246B4F89610B4F89400B04700
:1058D000834600213846264FB84780460021484677
:1058E000B847814600215046B847824600215846B5
:1058F000B847009053464A4641462046DFF87C8030
:10590000C0470540B4F89A10B4F89800B0478346F1
:10591000B4F89E10B4F89C00B0478046B4F8A210CA
:10592000B4F8A000B0478146B4F8A610B4F8A400BB
:10593000B047824600215846B847064600214046F7
:10594000B847804600214846B84781460021504666
:10595000B84700904B46424631462046064EB04777
:10596000054084F8AB5059E7316B40002D5640009C
:1059700051574000416B4000456C4000B96B4000FE
:1059800038B50D68044B984704460C212846034B54
:105990009847204638BD00BF11584000B5B24000BE
:1059A0002DE9F84305460E46134C0088A047804673
:1059B000B5F87400A04781466888A0470546304680
:1059C0000E4B98470746494640460D4B98470D4CAD
:1059D00001463846A04701462846A0470146002E0A
:1059E00007DB4FF07C50084B9847084B9847BDE8C1
:1059F000F8834FF03F40F6E731BD400039BD40002D
:105A000049BF4000E1BD4000D1BB40006DC1400036
:105A100070B50D4690F85240008804FB00F4204613
:105A20000E4B98470E490F4B98470F4B9847261A35
:105A300095FBF4F204FB12531146002B06DB834264
:105A400007DBB34208DD01FB044070BD2344511E57
:105A5000F5E704FB01F070BD284670BD39BD40007C
:105A60000AD7233CE1BD40006DC1400038B50C466B
:105A700090F87230012B29D0054690F87330012B35
:105A800012D0134B9847002C04DD6FF000431B1B12
:105A9000984212DC002C0ADB002393B9044421460F
:105AA00028460C4B984738BD0B4B9847EBE7C4F1A1
:105AB0000043984203DB0023EFE70123EDE70123D6
:105AC000EBE700212846054B9847E8E7084638BD34
:105AD00015694000115A400061694000CD6C4000DA
